{
  "contractName": "DappToken",
  "abi": [
    {
      "constant": true,
      "inputs": [],
      "name": "totalSupply",
      "outputs": [
        {
          "name": "",
          "type": "uint256"
        }
      ],
      "payable": false,
      "stateMutability": "view",
      "type": "function"
    },
    {
      "inputs": [],
      "payable": false,
      "stateMutability": "nonpayable",
      "type": "constructor"
    }
  ],
  "bytecode": "0x608060405234801561001057600080fd5b50620f4240600081905550609e806100296000396000f300608060405260043610603f576000357c0100000000000000000000000000000000000000000000000000000000900463ffffffff16806318160ddd146044575b600080fd5b348015604f57600080fd5b506056606c565b6040518082815260200191505060405180910390f35b600054815600a165627a7a723058206774da7b2664fc315c438e6e2e5b8967b126bcfd0efd9cba67a908f02332ba980029",
  "source": "pragma solidity ^0.4.2;\r\n\r\ncontract DappToken {\r\n\r\n\tuint256 public totalSupply;\r\n\t\r\n\tfunction DappToken() public {\r\n\t\ttotalSupply = 1000000; /* 10^6 */\r\n\t}\r\n\r\n}",
  "sourcePath": "C:\\Users\\Vinayak\\Documents\\blockchainProject\\token_sale\\contracts\\DappToken.sol",
  "compiler": {
    "name": "solc",
    "version": "0.4.25+commit.59dbf8f1.Emscripten.clang"
  },
  "schemaVersion": "2.0.2",
  "updatedAt": "2018-12-25T08:20:06.737Z"
}